{
  "_format": "hh-sol-artifact-1",
  "contractName": "MeeChainMissionNFT",
  "sourceName": "contracts/MeeChainMissionNFT.sol",
  "abi": [
    {
      "inputs": [],
      "stateMutability": "nonpayable",
      "type": "constructor"
    },
    {
      "inputs": [
        {
          "internalType": "address",
          "name": "sender",
          "type": "address"
        },
        {
          "internalType": "uint256",
          "name": "tokenId",
          "type": "uint256"
        },
        {
          "internalType": "address",
          "name": "owner",
          "type": "address"
        }
      ],
      "name": "ERC721IncorrectOwner",
      "type": "error"
    },
    {
      "inputs": [
        {
          "internalType": "address",
          "name": "operator",
          "type": "address"
        },
        {
          "internalType": "uint256",
          "name": "tokenId",
          "type": "uint256"
        }
      ],
      "name": "ERC721InsufficientApproval",
      "type": "error"
    },
    {
      "inputs": [
        {
          "internalType": "address",
          "name": "approver",
          "type": "address"
        }
      ],
      "name": "ERC721InvalidApprover",
      "type": "error"
    },
    {
      "inputs": [
        {
          "internalType": "address",
          "name": "operator",
          "type": "address"
        }
      ],
      "name": "ERC721InvalidOperator",
      "type": "error"
    },
    {
      "inputs": [
        {
          "internalType": "address",
          "name": "owner",
          "type": "address"
        }
      ],
      "name": "ERC721InvalidOwner",
      "type": "error"
    },
    {
      "inputs": [
        {
          "internalType": "address",
          "name": "receiver",
          "type": "address"
        }
      ],
      "name": "ERC721InvalidReceiver",
      "type": "error"
    },
    {
      "inputs": [
        {
          "internalType": "address",
          "name": "sender",
          "type": "address"
        }
      ],
      "name": "ERC721InvalidSender",
      "type": "error"
    },
    {
      "inputs": [
        {
          "internalType": "uint256",
          "name": "tokenId",
          "type": "uint256"
        }
      ],
      "name": "ERC721NonexistentToken",
      "type": "error"
    },
    {
      "inputs": [
        {
          "internalType": "address",
          "name": "owner",
          "type": "address"
        }
      ],
      "name": "OwnableInvalidOwner",
      "type": "error"
    },
    {
      "inputs": [
        {
          "internalType": "address",
          "name": "account",
          "type": "address"
        }
      ],
      "name": "OwnableUnauthorizedAccount",
      "type": "error"
    },
    {
      "anonymous": false,
      "inputs": [
        {
          "indexed": true,
          "internalType": "address",
          "name": "owner",
          "type": "address"
        },
        {
          "indexed": true,
          "internalType": "address",
          "name": "approved",
          "type": "address"
        },
        {
          "indexed": true,
          "internalType": "uint256",
          "name": "tokenId",
          "type": "uint256"
        }
      ],
      "name": "Approval",
      "type": "event"
    },
    {
      "anonymous": false,
      "inputs": [
        {
          "indexed": true,
          "internalType": "address",
          "name": "owner",
          "type": "address"
        },
        {
          "indexed": true,
          "internalType": "address",
          "name": "operator",
          "type": "address"
        },
        {
          "indexed": false,
          "internalType": "bool",
          "name": "approved",
          "type": "bool"
        }
      ],
      "name": "ApprovalForAll",
      "type": "event"
    },
    {
      "anonymous": false,
      "inputs": [
        {
          "indexed": false,
          "internalType": "uint256",
          "name": "_fromTokenId",
          "type": "uint256"
        },
        {
          "indexed": false,
          "internalType": "uint256",
          "name": "_toTokenId",
          "type": "uint256"
        }
      ],
      "name": "BatchMetadataUpdate",
      "type": "event"
    },
    {
      "anonymous": false,
      "inputs": [
        {
          "indexed": false,
          "internalType": "uint256",
          "name": "_tokenId",
          "type": "uint256"
        }
      ],
      "name": "MetadataUpdate",
      "type": "event"
    },
    {
      "anonymous": false,
      "inputs": [
        {
          "indexed": true,
          "internalType": "address",
          "name": "user",
          "type": "address"
        },
        {
          "indexed": false,
          "internalType": "uint256",
          "name": "missionId",
          "type": "uint256"
        },
        {
          "indexed": false,
          "internalType": "uint256",
          "name": "tokenId",
          "type": "uint256"
        },
        {
          "indexed": false,
          "internalType": "string",
          "name": "ipfsUri",
          "type": "string"
        }
      ],
      "name": "MissionCompleted",
      "type": "event"
    },
    {
      "anonymous": false,
      "inputs": [
        {
          "indexed": true,
          "internalType": "address",
          "name": "previousOwner",
          "type": "address"
        },
        {
          "indexed": true,
          "internalType": "address",
          "name": "newOwner",
          "type": "address"
        }
      ],
      "name": "OwnershipTransferred",
      "type": "event"
    },
    {
      "anonymous": false,
      "inputs": [
        {
          "indexed": true,
          "internalType": "address",
          "name": "from",
          "type": "address"
        },
        {
          "indexed": true,
          "internalType": "address",
          "name": "to",
          "type": "address"
        },
        {
          "indexed": true,
          "internalType": "uint256",
          "name": "tokenId",
          "type": "uint256"
        }
      ],
      "name": "Transfer",
      "type": "event"
    },
    {
      "inputs": [
        {
          "internalType": "uint256",
          "name": "missionId",
          "type": "uint256"
        },
        {
          "internalType": "string",
          "name": "name",
          "type": "string"
        },
        {
          "internalType": "uint256",
          "name": "xpReward",
          "type": "uint256"
        }
      ],
      "name": "addMission",
      "outputs": [],
      "stateMutability": "nonpayable",
      "type": "function"
    },
    {
      "inputs": [
        {
          "internalType": "address",
          "name": "to",
          "type": "address"
        },
        {
          "internalType": "uint256",
          "name": "tokenId",
          "type": "uint256"
        }
      ],
      "name": "approve",
      "outputs": [],
      "stateMutability": "nonpayable",
      "type": "function"
    },
    {
      "inputs": [
        {
          "internalType": "address",
          "name": "owner",
          "type": "address"
        }
      ],
      "name": "balanceOf",
      "outputs": [
        {
          "internalType": "uint256",
          "name": "",
          "type": "uint256"
        }
      ],
      "stateMutability": "view",
      "type": "function"
    },
    {
      "inputs": [
        {
          "internalType": "address",
          "name": "player",
          "type": "address"
        },
        {
          "internalType": "uint256",
          "name": "missionId",
          "type": "uint256"
        },
        {
          "internalType": "string",
          "name": "ipfsUri",
          "type": "string"
        }
      ],
      "name": "completeMissionAndMint",
      "outputs": [
        {
          "internalType": "uint256",
          "name": "",
          "type": "uint256"
        }
      ],
      "stateMutability": "nonpayable",
      "type": "function"
    },
    {
      "inputs": [
        {
          "internalType": "uint256",
          "name": "tokenId",
          "type": "uint256"
        }
      ],
      "name": "getApproved",
      "outputs": [
        {
          "internalType": "address",
          "name": "",
          "type": "address"
        }
      ],
      "stateMutability": "view",
      "type": "function"
    },
    {
      "inputs": [
        {
          "internalType": "address",
          "name": "player",
          "type": "address"
        },
        {
          "internalType": "uint256",
          "name": "missionId",
          "type": "uint256"
        }
      ],
      "name": "hasCompletedMission",
      "outputs": [
        {
          "internalType": "bool",
          "name": "",
          "type": "bool"
        }
      ],
      "stateMutability": "view",
      "type": "function"
    },
    {
      "inputs": [
        {
          "internalType": "address",
          "name": "owner",
          "type": "address"
        },
        {
          "internalType": "address",
          "name": "operator",
          "type": "address"
        }
      ],
      "name": "isApprovedForAll",
      "outputs": [
        {
          "internalType": "bool",
          "name": "",
          "type": "bool"
        }
      ],
      "stateMutability": "view",
      "type": "function"
    },
    {
      "inputs": [
        {
          "internalType": "uint256",
          "name": "",
          "type": "uint256"
        }
      ],
      "name": "missions",
      "outputs": [
        {
          "internalType": "string",
          "name": "name",
          "type": "string"
        },
        {
          "internalType": "uint256",
          "name": "xpReward",
          "type": "uint256"
        },
        {
          "internalType": "bool",
          "name": "isActive",
          "type": "bool"
        }
      ],
      "stateMutability": "view",
      "type": "function"
    },
    {
      "inputs": [],
      "name": "name",
      "outputs": [
        {
          "internalType": "string",
          "name": "",
          "type": "string"
        }
      ],
      "stateMutability": "view",
      "type": "function"
    },
    {
      "inputs": [],
      "name": "owner",
      "outputs": [
        {
          "internalType": "address",
          "name": "",
          "type": "address"
        }
      ],
      "stateMutability": "view",
      "type": "function"
    },
    {
      "inputs": [
        {
          "internalType": "uint256",
          "name": "tokenId",
          "type": "uint256"
        }
      ],
      "name": "ownerOf",
      "outputs": [
        {
          "internalType": "address",
          "name": "",
          "type": "address"
        }
      ],
      "stateMutability": "view",
      "type": "function"
    },
    {
      "inputs": [],
      "name": "renounceOwnership",
      "outputs": [],
      "stateMutability": "nonpayable",
      "type": "function"
    },
    {
      "inputs": [
        {
          "internalType": "address",
          "name": "from",
          "type": "address"
        },
        {
          "internalType": "address",
          "name": "to",
          "type": "address"
        },
        {
          "internalType": "uint256",
          "name": "tokenId",
          "type": "uint256"
        }
      ],
      "name": "safeTransferFrom",
      "outputs": [],
      "stateMutability": "nonpayable",
      "type": "function"
    },
    {
      "inputs": [
        {
          "internalType": "address",
          "name": "from",
          "type": "address"
        },
        {
          "internalType": "address",
          "name": "to",
          "type": "address"
        },
        {
          "internalType": "uint256",
          "name": "tokenId",
          "type": "uint256"
        },
        {
          "internalType": "bytes",
          "name": "data",
          "type": "bytes"
        }
      ],
      "name": "safeTransferFrom",
      "outputs": [],
      "stateMutability": "nonpayable",
      "type": "function"
    },
    {
      "inputs": [
        {
          "internalType": "address",
          "name": "operator",
          "type": "address"
        },
        {
          "internalType": "bool",
          "name": "approved",
          "type": "bool"
        }
      ],
      "name": "setApprovalForAll",
      "outputs": [],
      "stateMutability": "nonpayable",
      "type": "function"
    },
    {
      "inputs": [
        {
          "internalType": "bytes4",
          "name": "interfaceId",
          "type": "bytes4"
        }
      ],
      "name": "supportsInterface",
      "outputs": [
        {
          "internalType": "bool",
          "name": "",
          "type": "bool"
        }
      ],
      "stateMutability": "view",
      "type": "function"
    },
    {
      "inputs": [],
      "name": "symbol",
      "outputs": [
        {
          "internalType": "string",
          "name": "",
          "type": "string"
        }
      ],
      "stateMutability": "view",
      "type": "function"
    },
    {
      "inputs": [
        {
          "internalType": "uint256",
          "name": "tokenId",
          "type": "uint256"
        }
      ],
      "name": "tokenURI",
      "outputs": [
        {
          "internalType": "string",
          "name": "",
          "type": "string"
        }
      ],
      "stateMutability": "view",
      "type": "function"
    },
    {
      "inputs": [
        {
          "internalType": "address",
          "name": "from",
          "type": "address"
        },
        {
          "internalType": "address",
          "name": "to",
          "type": "address"
        },
        {
          "internalType": "uint256",
          "name": "tokenId",
          "type": "uint256"
        }
      ],
      "name": "transferFrom",
      "outputs": [],
      "stateMutability": "nonpayable",
      "type": "function"
    },
    {
      "inputs": [
        {
          "internalType": "address",
          "name": "newOwner",
          "type": "address"
        }
      ],
      "name": "transferOwnership",
      "outputs": [],
      "stateMutability": "nonpayable",
      "type": "function"
    },
    {
      "inputs": [
        {
          "internalType": "address",
          "name": "",
          "type": "address"
        },
        {
          "internalType": "uint256",
          "name": "",
          "type": "uint256"
        }
      ],
      "name": "userCompletedMissions",
      "outputs": [
        {
          "internalType": "bool",
          "name": "",
          "type": "bool"
        }
      ],
      "stateMutability": "view",
      "type": "function"
    }
  ],
  "bytecode": "0x60806040523480156200001157600080fd5b50336040518060400160405280601581526020017f4d6565436861696e2047656e65736973204361726400000000000000000000008152506040518060400160405280600781526020016613515150d0549160ca1b81525081600090816200007a9190620001c4565b506001620000898282620001c4565b5050506001600160a01b038116620000bb57604051631e4fbdf760e01b81526000600482015260240160405180910390fd5b620000c681620000cd565b5062000290565b600780546001600160a01b038381166001600160a01b0319831681179093556040519116919082907f8be0079c531659141344cd1fd0a4f28419497f9722a3daafe3b4186f6b6457e090600090a35050565b634e487b7160e01b600052604160045260246000fd5b600181811c908216806200014a57607f821691505b6020821081036200016b57634e487b7160e01b600052602260045260246000fd5b50919050565b601f821115620001bf57600081815260208120601f850160051c810160208610156200019a5750805b601f850160051c820191505b81811015620001bb57828155600101620001a6565b5050505b505050565b81516001600160401b03811115620001e057620001e06200011f565b620001f881620001f1845462000135565b8462000171565b602080601f831160018114620002305760008415620002175750858301515b600019600386901b1c1916600185901b178555620001bb565b600085815260208120601f198616915b82811015620002615788860151825594840194600190910190840162000240565b5085821015620002805787850151600019600388901b60f8161c191681555b5050505050600190811b01905550565b6117cc80620002a06000396000f3fe608060405234801561001057600080fd5b50600436106101375760003560e01c806370a08231116100b8578063a8f6b8631161007c578063a8f6b863146102d0578063b88d4fde146102e3578063c87b56dd146102f6578063d4196d8514610309578063e985e9c51461031c578063f2fde38b1461032f57600080fd5b806370a082311461027b578063715018a61461029c5780638da5cb5b146102a457806395d89b41146102b5578063a22cb465146102bd57600080fd5b806323b872dd116100ff57806323b872dd146101e75780632c8fe526146101fa57806342842e0e1461021c578063515d770c1461022f5780636352211e1461026857600080fd5b806301ffc9a71461013c57806306fdde0314610164578063081812fc14610179578063095ea7b3146101a457806317263f4e146101b9575b600080fd5b61014f61014a3660046111e0565b610342565b60405190151581526020015b60405180910390f35b61016c61036d565b60405161015b919061124d565b61018c610187366004611260565b6103ff565b6040516001600160a01b03909116815260200161015b565b6101b76101b2366004611295565b610428565b005b61014f6101c7366004611295565b600a60209081526000928352604080842090915290825290205460ff1681565b6101b76101f53660046112bf565b610437565b61020d610208366004611260565b6104c7565b60405161015b939291906112fb565b6101b761022a3660046112bf565b610575565b61014f61023d366004611295565b6001600160a01b03919091166000908152600a60209081526040808320938352929052205460ff1690565b61018c610276366004611260565b610595565b61028e610289366004611325565b6105a0565b60405190815260200161015b565b6101b76105e8565b6007546001600160a01b031661018c565b61016c6105fc565b6101b76102cb366004611340565b61060b565b6101b76102de366004611428565b610616565b6101b76102f1366004611478565b61067f565b61016c610304366004611260565b610697565b61028e6103173660046114f4565b6107a8565b61014f61032a36600461154b565b610924565b6101b761033d366004611325565b610952565b60006001600160e01b03198216632483248360e11b1480610367575061036782610990565b92915050565b60606000805461037c9061157e565b80601f01602080910402602001604051908101604052809291908181526020018280546103a89061157e565b80156103f55780601f106103ca576101008083540402835291602001916103f5565b820191906000526020600020905b8154815290600101906020018083116103d857829003601f168201915b5050505050905090565b600061040a826109e0565b506000828152600460205260409020546001600160a01b0316610367565b610433828233610a19565b5050565b6001600160a01b03821661046657604051633250574960e11b8152600060048201526024015b60405180910390fd5b6000610473838333610a26565b9050836001600160a01b0316816001600160a01b0316146104c1576040516364283d7b60e01b81526001600160a01b038086166004830152602482018490528216604482015260640161045d565b50505050565b6009602052600090815260409020805481906104e29061157e565b80601f016020809104026020016040519081016040528092919081815260200182805461050e9061157e565b801561055b5780601f106105305761010080835404028352916020019161055b565b820191906000526020600020905b81548152906001019060200180831161053e57829003601f168201915b50505050600183015460029093015491929160ff16905083565b6105908383836040518060200160405280600081525061067f565b505050565b6000610367826109e0565b60006001600160a01b0382166105cc576040516322718ad960e21b81526000600482015260240161045d565b506001600160a01b031660009081526003602052604090205490565b6105f0610b1f565b6105fa6000610b4c565b565b60606001805461037c9061157e565b610433338383610b9e565b61061e610b1f565b60408051606081018252838152602080820184905260018284015260008681526009909152919091208151819061065590826115fe565b50602082015160018201556040909101516002909101805460ff1916911515919091179055505050565b61068a848484610437565b6104c13385858585610c3d565b60606106a2826109e0565b50600082815260066020526040812080546106bc9061157e565b80601f01602080910402602001604051908101604052809291908181526020018280546106e89061157e565b80156107355780601f1061070a57610100808354040283529160200191610735565b820191906000526020600020905b81548152906001019060200180831161071857829003601f168201915b50505050509050600061075360408051602081019091526000815290565b90508051600003610765575092915050565b81511561079757808260405160200161077f9291906116be565b60405160208183030381529060405292505050919050565b6107a084610d68565b949350505050565b60006107b2610b1f565b60008381526009602052604090206002015460ff1661080b5760405162461bcd60e51b81526020600482015260156024820152744d697373696f6e206973206e6f742061637469766560581b604482015260640161045d565b6001600160a01b0384166000908152600a6020908152604080832086845290915290205460ff161561087f5760405162461bcd60e51b815260206004820152601960248201527f4d697373696f6e20616c726561647920636f6d706c6574656400000000000000604482015260640161045d565b6001600160a01b0384166000908152600a602090815260408083208684529091528120805460ff1916600117905560088054916108bb836116ed565b90915550506008546108cd8582610ddd565b6108d78184610e42565b846001600160a01b03167f70cda9d30efad5e2aeeee61f238478ccbbdbf37a82234c43d1311757ba503e2a85838660405161091493929190611714565b60405180910390a2949350505050565b6001600160a01b03918216600090815260056020908152604080832093909416825291909152205460ff1690565b61095a610b1f565b6001600160a01b03811661098457604051631e4fbdf760e01b81526000600482015260240161045d565b61098d81610b4c565b50565b60006001600160e01b031982166380ac58cd60e01b14806109c157506001600160e01b03198216635b5e139f60e01b145b8061036757506301ffc9a760e01b6001600160e01b0319831614610367565b6000818152600260205260408120546001600160a01b03168061036757604051637e27328960e01b81526004810184905260240161045d565b6105908383836001610e92565b6000828152600260205260408120546001600160a01b0390811690831615610a5357610a53818486610f98565b6001600160a01b03811615610a9157610a70600085600080610e92565b6001600160a01b038116600090815260036020526040902080546000190190555b6001600160a01b03851615610ac0576001600160a01b0385166000908152600360205260409020805460010190555b60008481526002602052604080822080546001600160a01b0319166001600160a01b0389811691821790925591518793918516917fddf252ad1be2c89b69c2b068fc378daa952ba7f163c4a11628f55a4df523b3ef91a4949350505050565b6007546001600160a01b031633146105fa5760405163118cdaa760e01b815233600482015260240161045d565b600780546001600160a01b038381166001600160a01b0319831681179093556040519116919082907f8be0079c531659141344cd1fd0a4f28419497f9722a3daafe3b4186f6b6457e090600090a35050565b6001600160a01b038216610bd057604051630b61174360e31b81526001600160a01b038316600482015260240161045d565b6001600160a01b03838116600081815260056020908152604080832094871680845294825291829020805460ff191686151590811790915591519182527f17307eab39ab6107e8899845ad3d59bd9653f200f220920489ca2b5937696c31910160405180910390a3505050565b6001600160a01b0383163b15610d6157604051630a85bd0160e11b81526001600160a01b0384169063150b7a0290610c7f90889088908790879060040161173c565b6020604051808303816000875af1925050508015610cba575060408051601f3d908101601f19168201909252610cb791810190611779565b60015b610d23573d808015610ce8576040519150601f19603f3d011682016040523d82523d6000602084013e610ced565b606091505b508051600003610d1b57604051633250574960e11b81526001600160a01b038516600482015260240161045d565b805160208201fd5b6001600160e01b03198116630a85bd0160e11b14610d5f57604051633250574960e11b81526001600160a01b038516600482015260240161045d565b505b5050505050565b6060610d73826109e0565b506000610d8b60408051602081019091526000815290565b90506000815111610dab5760405180602001604052806000815250610dd6565b80610db584610ffc565b604051602001610dc69291906116be565b6040516020818303038152906040525b9392505050565b6001600160a01b038216610e0757604051633250574960e11b81526000600482015260240161045d565b6000610e1583836000610a26565b90506001600160a01b03811615610590576040516339e3563760e11b81526000600482015260240161045d565b6000828152600660205260409020610e5a82826115fe565b506040518281527ff8e1a15aba9398e019f0b49df1a4fde98ee17ae345cb5f6b5e2c27f5033e8ce79060200160405180910390a15050565b8080610ea657506001600160a01b03821615155b15610f68576000610eb6846109e0565b90506001600160a01b03831615801590610ee25750826001600160a01b0316816001600160a01b031614155b8015610ef55750610ef38184610924565b155b15610f1e5760405163a9fbf51f60e01b81526001600160a01b038416600482015260240161045d565b8115610f665783856001600160a01b0316826001600160a01b03167f8c5be1e5ebec7d5bd14f71427d1e84f3dd0314c0f7b2291e5b200ac8c7c3b92560405160405180910390a45b505b5050600090815260046020526040902080546001600160a01b0319166001600160a01b0392909216919091179055565b610fa383838361108f565b610590576001600160a01b038316610fd157604051637e27328960e01b81526004810182905260240161045d565b60405163177e802f60e01b81526001600160a01b03831660048201526024810182905260440161045d565b60606000611009836110f2565b600101905060008167ffffffffffffffff8111156110295761102961137c565b6040519080825280601f01601f191660200182016040528015611053576020820181803683370190505b5090508181016020015b600019016f181899199a1a9b1b9c1cb0b131b232b360811b600a86061a8153600a850494508461105d57509392505050565b60006001600160a01b038316158015906107a05750826001600160a01b0316846001600160a01b031614806110c957506110c98484610924565b806107a05750506000908152600460205260409020546001600160a01b03908116911614919050565b60008072184f03e93ff9f4daa797ed6e38ed64bf6a1f0160401b83106111315772184f03e93ff9f4daa797ed6e38ed64bf6a1f0160401b830492506040015b6d04ee2d6d415b85acef8100000000831061115d576d04ee2d6d415b85acef8100000000830492506020015b662386f26fc10000831061117b57662386f26fc10000830492506010015b6305f5e1008310611193576305f5e100830492506008015b61271083106111a757612710830492506004015b606483106111b9576064830492506002015b600a83106103675760010192915050565b6001600160e01b03198116811461098d57600080fd5b6000602082840312156111f257600080fd5b8135610dd6816111ca565b60005b83811015611218578181015183820152602001611200565b50506000910152565b600081518084526112398160208601602086016111fd565b601f01601f19169290920160200192915050565b602081526000610dd66020830184611221565b60006020828403121561127257600080fd5b5035919050565b80356001600160a01b038116811461129057600080fd5b919050565b600080604083850312156112a857600080fd5b6112b183611279565b946020939093013593505050565b6000806000606084860312156112d457600080fd5b6112dd84611279565b92506112eb60208501611279565b9150604084013590509250925092565b60608152600061130e6060830186611221565b602083019490945250901515604090910152919050565b60006020828403121561133757600080fd5b610dd682611279565b6000806040838503121561135357600080fd5b61135c83611279565b91506020830135801515811461137157600080fd5b809150509250929050565b634e487b7160e01b600052604160045260246000fd5b600067ffffffffffffffff808411156113ad576113ad61137c565b604051601f8501601f19908116603f011681019082821181831017156113d5576113d561137c565b816040528093508581528686860111156113ee57600080fd5b858560208301376000602087830101525050509392505050565b600082601f83011261141957600080fd5b610dd683833560208501611392565b60008060006060848603121561143d57600080fd5b83359250602084013567ffffffffffffffff81111561145b57600080fd5b61146786828701611408565b925050604084013590509250925092565b6000806000806080858703121561148e57600080fd5b61149785611279565b93506114a560208601611279565b925060408501359150606085013567ffffffffffffffff8111156114c857600080fd5b8501601f810187136114d957600080fd5b6114e887823560208401611392565b91505092959194509250565b60008060006060848603121561150957600080fd5b61151284611279565b925060208401359150604084013567ffffffffffffffff81111561153557600080fd5b61154186828701611408565b9150509250925092565b6000806040838503121561155e57600080fd5b61156783611279565b915061157560208401611279565b90509250929050565b600181811c9082168061159257607f821691505b6020821081036115b257634e487b7160e01b600052602260045260246000fd5b50919050565b601f82111561059057600081815260208120601f850160051c810160208610156115df5750805b601f850160051c820191505b81811015610d5f578281556001016115eb565b815167ffffffffffffffff8111156116185761161861137c565b61162c81611626845461157e565b846115b8565b602080601f83116001811461166157600084156116495750858301515b600019600386901b1c1916600185901b178555610d5f565b600085815260208120601f198616915b8281101561169057888601518255948401946001909101908401611671565b50858210156116ae5787850151600019600388901b60f8161c191681555b5050505050600190811b01905550565b600083516116d08184602088016111fd565b8351908301906116e48183602088016111fd565b01949350505050565b60006001820161170d57634e487b7160e01b600052601160045260246000fd5b5060010190565b8381528260208201526060604082015260006117336060830184611221565b95945050505050565b6001600160a01b038581168252841660208201526040810183905260806060820181905260009061176f90830184611221565b9695505050505050565b60006020828403121561178b57600080fd5b8151610dd6816111ca56fea26469706673582212207cc5b7e5ddb3f4e0dc5694020aa4cf61fddbc662ff7da4afd8fea28bfe5c9d3b64736f6c63430008140033",
  "linkReferences": {},
  "deployedLinkReferences": {}
}